:020000041000EA
:1000000000B5324B212058609868022188439860DF
:10001000D860186158612E4B002199600221596106
:100020000121F02299502B49196001219960352056
:1000300000F044F80222904214D00621196600F024
:1000400034F8196E01211966002018661A6600F04E
:100050002CF8196E196E196E052000F02FF8012189
:100060000842F9D1002199601B49196000215960AB
:100070001A491B48016001219960EB211966A021F2
:10008000196600F012F800219960164914480160C1
:100090000121996001BC002800D000471248134993
:1000A000086003C880F30888084703B5996A0420EC
:1000B0000142FBD001200142F8D103BD02B5186610
:1000C0001866FFF7F2FF186E186E02BD00000240BE
:1000D000000000180000070000035F00212200005C
:1000E000F4000018222000A00001001008ED00E03C
:1000F00000000000000000000000000074B24E7A12
:1001000000200420F7010010C3010010C5010010F9
:10011000C1010010C1010010C1010010C101001097
:10012000C1010010C1010010C1010010C701001081
:10013000C1010010C1010010C9010010CB01001065
:10014000CD010010CD010010CD010010CD01001037
:10015000CD010010CD010010CD010010CD01001027
:10016000CD010010CD010010CD010010CD01001017
:10017000CD010010CD010010CD010010CD01001007
:10018000CD010010CD010010CD010010CD010010F7
:10019000CD010010CD010010CD010010CD010010E7
:1001A000CD010010CD010010CD010010CD010010D7
:1001B000CD010010CD010010CD010010CD010010C7
:1001C00000BE00BE00BE00BE00BE00BEEFF3058054
:1001D000103800BEF2EB8871F87000102471001026
:1001E0003802001090A31AE71E481F49086006C88D
:1001F00081F3088810471D480068002801D019487D
:10020000F3E70DA40ECC002902D000F012F8F9E7B4
:100210001749184A002000E001C19142FCD116495B
:100220008847164988471649884700BEFDE701C937
:1002300001C29A42FBD3704724710010C000002015
:10024000381000209C8000100000042000000420D2
:100250009C8000100010042000100420000000000A
:10026000704700000000000008ED00E0000000D032
:1002700038100020441F0020C53A0010D50200109D
:10028000BD3A0010F8B5C04606480749091A8B1058
:10029000C90FC91810B5491003D0044B002B00D06A
:1002A000984710BD381000203810002000000000D2
:1002B000054B10B5002B03D00449054800E000BFF2
:1002C000FFF7E2FF10BDC04600000000D81D00206F
:1002D0002C6A0010F0B5DE464E4657464546E0B55E
:1002E00083B003F021FD0F2000F074F80E2000F021
:1002F00071F8D026802336061B0273629A4680234B
:10030000DB01B362224B9946224B9B46224B984617
:10031000224B019353460220B36100F0C5FF5346C0
:100320000A20736100F0C0FF53468027B3617368F1
:10033000FF013B4209D1484603F04AFD01F05EF857
:10034000736804000D003B42F5D001F057F802003D
:100350000B008027121BAB41584603F0C1FD7368A8
:10036000FF013B4209D0404603F032FD01F046F860
:10037000736804000D003B42F5D101F03FF8020024
:100380000B000198121BAB4103F0AAFDC2E7C04667
:10039000306A0010406A0010586A0010646A001049
:1003A000094A83009A1810B51468402254408032DC
:1003B0002240064CC000A44663441A60044B9C468D
:1003C0006044416010BDC04604C0014004D00140FB
:1003D000004001400123D0228340120693629361C2
:1003E000094A83009A1811684022514080320A401D
:1003F0000649C0008C4663441A60054B9C460523A1
:10040000604443607047C04604C0014004D00140CE
:10041000004001408023DB051868000F7047C0468C
:100420000FB400B5084883B003F0D2FC049B002B46
:1004300007D005A91800019103F026FB034803F03B
:10044000C7FC012003F038FB806A0010906A00109E
:1004500070B5EFF3108C72B60D4D2B68002BFCD0ED
:10046000BFF35F8F0724CB08C618C05C01230C4084
:10047000A3401C000440034207D118433070BFF36F
:100480005F8F2C608CF3108870BD1000FFF7C8FFE1
:100490002C0100D0F8B54746CE46884680B5EFF32C
:1004A000108C72B6214D2C68002CFCD0BFF35F8FEE
:1004B0009A422CD8D4080727055D06190124174055
:1004C000BC402C421FD007210127894609E0D408EF
:1004D000055D06194C4639001440A1400C00294224
:1004E00011D001329342F2D201204042BFF35F8F1C
:1004F00000220E4B1A608CF3108800280FDBC0BC62
:10050000B946B046F8BD254310003570EEE7BFF39D
:100510005F8F00232B608CF31088012040424346FC
:10052000002BECD00898FFF77BFFC0462C0100D0D1
:10053000044A1078431CDBB2172B00D91023137028
:100540007047C046500F002010B5064B064C82B0D5
:100550000100009318221F232000FFF79BFF02B029
:1005600010BDC046946A0010681900200021044B99
:10057000044ABFF35F8F02C39342FAD17047C0466B
:10058000000100D0800100D0054B064A1360064AE6
:10059000136053609360D36013615361936170473C
:1005A0008080808000E400E004E400E01F23184025
:1005B0001E3B8340002905D0C021044A4900535006
:1005C00013607047802201498B50FAE700E100E098
:1005D00001228240034B1B6813405A1E9341D8B23C
:1005E0007047C04600E100E001238340014A1360E8
:1005F0007047C04600E200E0064B10309B68800068
:10060000C358054A00209B1A2F229A424041C0B28B
:100610007047C04600ED00E0540F002070B50D009B
:10062000EFF3108672B60F4A1368002BFCD0BFF3AD
:100630005F8F0D4B10309B6884001B590B4A93420F
:1006400003D09D4201D001F0AFF9074B9B681D51CB
:10065000BFF35F8FBFF35F8F0022024B1A6086F3F8
:10066000108870BD240100D000ED00E0CD01001025
:10067000F0B557464E46DE464546E0B585B0060025
:1006800000911700EFF3108B72B66A4A1368002BC3
:10069000FCD0BFF35F8F0025674B5D579A46002D56
:1006A00000DAA9E06B00654C01935B199B0098464A
:1006B000A146C1444B4652469B7910361370604B9D
:1006C000B6009B6899590B1B2F2B33D95D4B994270
:1006D00000D0ACE0019B42469C465B4B6544AD00BC
:1006E00063535A4B0232A218043B9B1A1B05584A0B
:1006F0005B0D651913436B80564B0121AB80FF23C3
:10070000AB71009BEF71AB604B460B4319004C4B38
:100710009B689951BFF35F8FBFF35F8F0022454BFA
:100720001A608BF3108805B0F0BCBB46B246A946F0
:10073000A046F0BD01200A008243D3798C46BB421B
:1007400031D84546130044491B1B5B415943090DF1
:100750003D4B63533D4B02356519043B5B1B1B0549
:100760003B4D5B0D2B43AA464D466B800425AC46A2
:100770005546E044131F44441B1B1B055B0D1D43E2
:100780004B46997100999D8099604946DF71334BC2
:1007900001431360BBE75800C01880002018C179DE
:1007A000B9422FD902000623D356002BF3DA029365
:1007B0002B4B61460393131D9A4604235B429C46D0
:1007C000E14450464B461B1A1B055B0D9C46204BD3
:1007D000957198466346404603439380019B5A199E
:1007E0009200039BA418A380029B1C4AA371009B48
:1007F0002260E771A3608AE701F0D6F8002553462E
:100800005D574FE7908802934005131D9A460315E4
:1008100061469C464046D444634604302018181A6A
:10082000E0230005400D1B0218430390C5E701F0CB
:10083000BBF84FE7240100D03D1F0020540F0020DB
:1008400000ED00E0CD01001000A1FFFF840F0020AB
:1008500000E0FFFF01BDFFFFAAAA0000014880479A
:1008600001BD0000F0B5DE4657464E464546E0B5B0
:100870000C0083B0EFF3108872B6634A1368002B44
:10088000FCD0BFF35F8F614B61499A68030010335E
:100890009F00D55900938D4243D0A54254D05D4E60
:1008A000AA1B2F2A3DD85C4B9C461B689A46012305
:1008B0001A0099468240534613401F2201934B462B
:1008C000024093409A468022634650469850BFF3B8
:1008D0005F8FEFF305839B46002B37D0009B5B4572
:1008E00001D001F061F82A004B469A439068844297
:1008F00008D177E04B005B189B00F318986884429E
:1009000036D01A00062151560029F3DA844255D018
:10091000019B002B27D0C02251463F4B52009950DB
:1009200019603A4B9B68DD51BFF35F8FBFF35F8F58
:100930000022354B1A6088F3108803B0F0BCBB4628
:10094000B246A946A046F0BD0D00EAE72A004B4694
:100950009A4390688442D5D106201056130000288F
:100960000ADA0D0032E0802351462B4AD150D8E7F5
:1009700006201856002822DB42001118890074183E
:100980008946A1689960E179D9710621615699710A
:10099000002925DBA488F11A640524154C440919A3
:1009A000E0240905490D24022143998013181B4AAC
:1009B0009B001178F31899711070A9E7130059463C
:1009C000002914D1FF3191711549918013490A789A
:1009D0009A71144A9B1B5B415A43120D0A7097E7A8
:1009E0001149E2E70620105613000028C4DA0F4A26
:1009F0000F49D21A083A5002400D014399800D491F
:100A000052080A43DA8083E7240100D000ED00E0B9
:100A1000CD010010540F002000E100E03D1F002038
:100A200001BDFFFFAAAA000001BD00008E0F00203B
:100A300000F0FFFF00F8FFFF70B501240443EFF35F
:100A40000581EFF3108C72B6214A1368002BFCD09D
:100A5000BFF35F8F1F4B05001F4AED1A6D416A43BC
:100A6000120D1E4D8900AE6852B27658A6421CD0B7
:100A70000621595691421CD012215956914222D03A
:100A80001E215956914220D02A21595603249142C1
:100A900010D0134B19781A708171BFF35F8F002249
:100AA0000B4B1A608CF3108870BDAB680D4C5C501A
:100AB000EFE700246100091989005B18FF21997193
:100AC00009499980E5E70124F4E70224F2E7C046EA
:100AD000240100D0540F0020AAAA000000ED00E07D
:100AE0003D1F0020CD01001001BDFFFF10B5084BD8
:100AF000084C82B001000093002205232000FFF77C
:100B0000C9FC002801DB1F23181A02B010BDC04623
:100B1000B06A0010411F0020024B9C4661448900CE
:100B2000016070474000003470B5114C114DAC426B
:100B30000FD2FF262368002B0CD0FFF7F9FC010031
:100B40002000FFF7E9FFA680BFF35F8F0834AC42B7
:100B5000F0D370BDFFF7ECFC01002000FFF7DCFFD5
:100B60002671BFF35F8F0834AC42E3D3F1E7C04690
:100B7000301000203810002010B50400FFF7D8FC1A
:100B800001002000FFF7C8FFFF232371BFF35F8F31
:100B900010BDC04610B504000120FFF7D5FC034B83
:100BA000C3189B002360BFF35F8F10BD400000346B
:100BB000034B9C46614489000160BFF35F8F70471F
:100BC000400000340A4B1968EFF3108072B60A68CF
:100BD000002AFCD0BFF35F8F1B68BFF35F8F00223A
:100BE0001A6080F3108840BF002000217047C04683
:100BF000141F0020F0B5DE4657464E464546E0B588
:100C000083B0EFF3058203231340B54A990052588D
:100C10000091904601229A409346B24B1A60B24B23
:100C200001935B46B1484363434608229B5E994665
:100C3000002B3ADA43469B881BB2002B00DB9DE079
:100C400043469B79002B00D0E1E0434608241C5F1B
:100C5000002C20DB43465A6963001B19DB00D318C4
:100C60009D68DC686B1C00D103E1A04800998446B4
:100C70006144826A0B69AE1A9B1A9E4213D35A468C
:100C8000036A1A420FD0994800F0B0FB8C4202DC94
:100C9000C7D18542C5D940BF03B0F0BCBB46B24600
:100CA000A946A046F0BD0D61EDE7424652695B00E2
:100CB00092464B44DB009A4453469E68DF6800F03E
:100CC00095FB8F42B6DC00D1F8E0002F00DAD9E0C6
:100CD0005246534654691B69019A934200D1CCE0B5
:100CE000414652460820085E528800042100104305
:100CF000984704000D0023002B4300D1C2E0002DD3
:100D000000DBDFE030003900001BA941534698604A
:100D1000D96000229A5E002A00DA8BE743465D69BB
:100D200053009C18E4002C19A768E4688C4200DD8D
:100D300080E702D1874200D97CE7464632810836F7
:100D40000DE08C4200D1C6E01E000023F25E002AB6
:100D50000ADB53009C18E4002C19A768E4689B1870
:100D6000DB00EB188C42ECDD53461A804B46338097
:100D700043469B881BB2002B00DA61E743461A69A1
:100D8000EFF3108172B61368002BFCD0BFF35F8FB6
:100D900043469E88012342465B42938036B21369E4
:100DA000BFF35F8F00221A6081F31088002E00DAF3
:100DB00046E743465D69083342469C467700BF19C3
:100DC000FF00EF19BB68604698460823D15E924643
:100DD000FC68002907DA0EE0A24246D01800002382
:100DE000C15E002906DB4B005B18DB00EB18DA68FC
:100DF000A242F1DD524606800023FE5E3980002EBD
:100E0000DCDA904643469B79002B00D11DE7002396
:100E100042469371434646460821595E08364B1CAC
:100E200000D138E747468946556902E006004B1C69
:100E300018D04B005B18DB00E8180A008C46E95E0E
:100E400043881BB2002BF1DA01235B42DC1783607D
:100E5000C4604A4503D031803B8903803A81E14632
:100E60004B1CE6D1B8464C46F2E69A684245B5D9E5
:100E7000C0E7631C00D0F8E605E720002369984727
:100E8000002825D1534642461B8813811269EFF38F
:100E9000108372B611680029FCD0BFF35F8F424601
:100EA000514652880A804246494651801269BFF332
:100EB0005F8F0021116083F31088BBE6864200D863
:100EC00003E7B7E6094800F091FA001969411DE708
:100ED000656824680FE7874200D835E744E7C046D5
:100EE000F81D00203C700540F50B00100040054047
:100EF00070B52E4C2569002D04D00A212C48FFF72F
:100F00000BFE70BD2B4E0321300000F065FAE66049
:100F1000FFF70EFB284B03229C46D02322701B06B2
:100F20001B6801216370254B6044A3600F23800080
:100F300020610220638063694942A18019800231E7
:100F4000198647311D83585218315A5275325C390F
:100F5000995218320131995218320131995218328E
:100F600001319952083518329D5202311832995286
:100F70001832013199521832013199521832013127
:100F800099521832013199521832013199520C4B51
:100F90000C49DC6001303562FFF740FB0121032082
:100FA000FFF704FB084B1D60A7E7C0469C0F00201D
:100FB000141F00200040054040000034FFFF1000D7
:100FC000F81D0020F50B0010386005400048704700
:100FD0009C0F0020F8B51F0008AB1B78040016001A
:100FE000002B08D100F00AFA32003B00121A8B41A4
:100FF000002B00DA53E02269EFF3108072B6136819
:10100000002BFCD0BFF35F8F0223E15E63694A00CF
:101010005218D2009B18002937DB1A886280226997
:10102000BFF35F8F0025156080F31088069A9E60DD
:10103000DF601A61079A5A615A8801325204520CD1
:10104000101C002A1FD082B2588008041043266961
:10105000EFF3108772B63268002AFCD0BFF35F8FBF
:10106000A2881A80A1802369BFF35F8F00221A60D3
:1010700087F310880B4923788C4601329A40E36845
:1010800063441A60F8BD0120DDE72369BFF35F8F79
:1010900000221A6080F3108801204042F2E700200D
:1010A000F0E7C0463C20000070B501000469EFF392
:1010B000108C72B620680028FCD0BFF35F8F02202E
:1010C0000D5E4C6968004019C0002418002D37DB04
:1010D000208848800869BFF35F8F002606608CF384
:1010E0001088E36063880498013320615B040598ED
:1010F0005B0CA26060611A1C002B1FD093B2280405
:10110000628018430A69EFF3108C72B61368002BE3
:10111000FCD0BFF35F8F8B8823808D800B69BFF37A
:101120005F8F00221A608CF310880B7801329A408E
:10113000CB6808498C4663441A6070BD0122DDE724
:101140000B69BFF35F8F00221A608CF310880120B7
:101150004042F2E73C20000010B543890A14934254
:101160001ADD53009B184269DB00D3180469EFF3C2
:10117000108C72B62268002AFCD0BFF35F8F5A88A9
:10118000090494B2090C8A4208D00369BFF35F8F47
:1011900000221A608CF31088002010BD80221202F9
:1011A00014435C80012302698371BFF35F8F0021C8
:1011B00011608CF31088044902788C469340C26811
:1011C000012062441360E8E73C200000407870474B
:1011D000F0B504000D0006267642F717C64636190C
:1011E0006F4100B582B08F4214D811D000F006F9DB
:1011F00032003B00121A8B41002B17DC002B47D02A
:101200002000290000F038F902B080BCB846F0BDDB
:101210008642EBD90022002316001F0000F0EEF8F2
:1012200032003B00121A8B41002BE7DD00F0E6F89C
:1012300032003B00121A8B41002B0ADB0023019382
:10124000154B3200009315483B00FFF72DFF002897
:10125000D6DB00239C46B046114A124E736A9F4269
:1012600004D8B16A8845CBD99F42C9D11168EFF340
:10127000108072B60B68002BFCD0BFF35F8F136831
:10128000BFF35F8F6146196080F3108820BFE5E7E8
:10129000002AB5D0CAE7C046C50B00109C0F00203D
:1012A000141F00200040054070B5060000F0A6F8AD
:1012B000FA2204000D00002330000021920000F00B
:1012C000EBFF8023001969411B06994202D30120DC
:1012D00002494042FFF77CFF70BDC046FFFFFF7F21
:1012E000F0B5D6464F464646C0B504000D0082B064
:1012F000EFF305878946002F0ED0344900204B6A52
:10130000AB4203D38A6A0130A24226D302B0E0BCCA
:10131000BA46B146A846F0BD2D4B9846DB689A46C2
:10132000434650461E7800F061F80B00514602001B
:101330000436B600715820008E1A2900801A99418F
:101340008F4211DC0ED020BF204A0020536A4B454B
:10135000DCD3926A0130A242D8D25B1B5A1E934161
:10136000D8B2D3E78642EED900F048F822002B002D
:10137000121A8B41002B1ADB00230193154B22001C
:10138000009340462B00FFF78FFE011E0FDD0F4B31
:101390005A6A4A4517D39B6AA34212D34046FFF7C5
:1013A000DBFE0A4A0020536A4B45AFD3D1E7074A18
:1013B0000020536A4B45A9D3926A0120A242A5D2CC
:1013C000CBE74A45EAD120BFE8E7C04600400540E8
:1013D0009C0F0020C50B001010B5024A0248FFF711
:1013E00037F810BDCC6A00106C1900200300416A68
:1013F0000A00986A596A8A42FAD17047034B596ABF
:101400000A00986A596A9142FAD170470040054033
:1014100070B504000D00174A536A1900966A536AA2
:101420008B42FAD13000190024184D41AB4216D836
:1014300013D0104A2B00526A954203D90D494A6ACB
:101440009A42FCD39A4207D10A4A02E0516A994271
:1014500002D1916AA142F9D370BDA642E9D9054BE8
:101460005B6A1C005A1CEFD0012301246442E5177B
:101470005B42E3E700400540064A536A9942FCD8C4
:1014800007D1044B02E05A6A914202D19A6A824221
:10149000F9D3704700400540F8B5040006200D0060
:1014A00000F078F9002844D0374B3849E3185A1E29
:1014B00093418022120494465B429B0D344A9B0563
:1014C00063441360334A136018000A689043FBD1E9
:1014D0002D4B314AE31859424B4180215B004900B2
:1014E0000620995200F056F92900C00000F062FB76
:1014F0000130C3091ED1402701226262A362266B1C
:10150000F30722D4E36A254B0620E51800232B605D
:10151000266300F03FF93900800000F04BFB702398
:10152000E26A5A400E3313402B601D4B23630323A2
:10153000A364F8BD1B4A93421ED900231A4A1B4FCD
:101540006262A362266BF307DCD5194B144AE318D9
:101550001A60656AA36A0620AD01ED1800F01AF959
:10156000144900F027FBAD020100280000F022FB27
:101570000021FFF74DFFC5E74006800E9F011A00CE
:101580003F180300B9E7C0460080FCBF08C0004018
:1015900000E0004000F00040201F00202C10000060
:1015A00001030000FEFF0000FFFF0000C0FF3F003E
:1015B000303000004E0E0000F8B5DE464E4657466D
:1015C0004546E0B58B4605000A991800160000F064
:1015D000F1FA0A9B6C001F02324B64199C46A4006E
:1015E0006444636881469F4200D967602B1FDBB269
:1015F0009846012B30D9C02380229B01E3181201A9
:101600001A60294BAD0059599A4600291BD1730124
:10161000E026226853401E40802342465B01E318C7
:101620001E60012A30D9802380229B01E318120119
:101630001A6053464A4667605A51F0BCBB46B246F0
:10164000A946A046F8BD586900F0B4FA013043003D
:101650001B18033BFDD2DAE75B46012BCBD1C0233D
:1016600003229B01E3181A60023AA3681A42FCD0D5
:101670007301E0262268AD0053401E4080230A4AD1
:101680005B019246E3181E605A46216851400322CE
:101690000A401A6001225B469A40A3681A42FCD0B5
:1016A000C1E7C0460080004070190020F0B54646F2
:1016B0004F46D646C0B51F00344B44009C46241804
:1016C000A4006444636888461600FF2B02D8802378
:1016D0005B006360031FDBB29A46012B30D9C02345
:1016E00080229B01E31812011A60294B8500595989
:1016F000994600291BD17301E026226853401E4001
:10170000802352465B01E3181E60012A30D98023F2
:1017100080229B01E31812011A6080235B00636042
:101720004B465F51E0BCBA46B146A846F0BD586989
:1017300000F040FA013043001B18033BFDD2DAE70A
:101740004346012BCBD1C02303229B01E3181A602F
:10175000023AA3681A42FCD07301E0262268850091
:1017600053401E4080230A4A5B019146E3181E60E5
:1017700042462168514003220A401A600123424632
:101780009340A2681342FCD0C1E7C04600800040ED
:1017900070190020014B8000C0587047701900205C
:1017A000F8B5040021481E0017000D0000F002FAF1
:1017B0000100380000F0FEF9069B36041B031E43AF
:1017C0002368002B20DB1A4B1A49E3185A1E934159
:1017D0008022920194465B421B0B174A1B03634411
:1017E0001360164A13601F000A689743FBD1144B1D
:1017F0002560E2182123A06013602368002BFCDA27
:101800000823E6601360F8BD3F2322681340AB4213
:10181000D9D1A3681B051B0D8342D4D1EE22E36806
:10182000D2021340B342CED1EDE7C046001BB70051
:101830000040FDBF08C0004000E0004000F0004054
:101840000430000010B580241C4BE4051C60002807
:101850001AD001231A4C18431A4BDC611A4C44402D
:101860001C62596298628021144BC905196017489F
:1018700017490860E021C9041960002A07D18022B5
:10188000144B12061A6010BD0E4BD861EBE75301E2
:101890009B1A9B009A18802312015B049A4209D27A
:1018A00013000D490B60074B5A608022094BD2058B
:1018B0001A60E8E7094B1A00F3E7C04600B005409C
:1018C000D3C007B0008005402D3FF84FFCFF01005A
:1018D0000820014000A00540D01D0020FFFFFF00B0
:1018E0008023024A9B000B43D3627047008005406F
:1018F000142310B50100188804331B88984710BDC5
:10190000162310B50100188802331B88984710BDB4
:10191000F8B54746CE4680B50F1E19D01423994618
:10192000043304000025012698464B461888434698
:1019300021681B88984701C4431E984101354042E5
:101940000640AF42F1D13000C0BCB946B046F8BD48
:101950000126F8E7142370B50400188804331B88A7
:101960000D000549984703000020002C01DB0130E1
:10197000A04029009847C04655420000AA23064AC5
:101980001B0113608D235B00D3600449044B196075
:101990005368002BFCDA70470040024000B0FA00A8
:1019A000006002407047C04610B50148FEF738FDA0
:1019B000F06A001070B5074D074EB54209D20024F9
:1019C000013E761BB60808CD984723000134B34288
:1019D000F9D170BDE8690010246A0010054B064A71
:1019E00006491A60064A074B1A6010000B689843B4
:1019F000FBD1704700E00040BFCDFBFE08C00040B7
:101A0000FE7F3C0000F00040044BDB6C002B03D158
:101A10008022034BD2021A607047C046000011506A
:101A20004C201150044A054B1A60054A1368DB012B
:101A30008033FBD17047C046FFFFFF0100F000403C
:101A400008C000404022034B9A675A671A67DA665B
:101A50007047C04600F0014010B5FEF787FD10BD8D
:101A600070B5044D044CA968C022200000F070FC41
:101A7000AC6070BD00ED00E000000020002310B558
:101A8000294C82B0A367FFF779FF0122274B1A6028
:101A9000636C012BFCD10322254B1A60224A936B05
:101AA000012BFCD1013300930121224A2248043347
:101AB000FFF776FE052301210093204A2048FFF717
:101AC0006FFE0022022104201E4BFFF7EFFD0022D3
:101AD000012105201C4BFFF7E9FD00220021072012
:101AE0001A4BFFF7E3FD002200210820174BFFF7F8
:101AF000DDFD8023DB000093002200210920134B31
:101B0000FFF75AFD0022104B00210620FFF7CEFD03
:101B10000420FFF73FFE0E4900F04CF801000020C2
:101B2000FFF7DEFE02B010BD008000403CB0004078
:101B300030B00040002F685900800240008C86477A
:101B400000C00240001BB70040597307006CDC0264
:101B500040420F0001480421014B1847C00F0020EC
:101B600011190010124A936F9B0815D29066D16626
:101B7000002905D0FFE7FFE7FFE7516F106F7047BF
:101B800004B580210906C2175140002800D0C8437F
:101B900004F0F2FE002104BDF0B5146E556E576FCF
:101BA000166FFFF7E3FF1466556657671667F0BDBB
:101BB000000000D0114A936F9B0813D21066516643
:101BC000002905D0FFE7FFE7FFE7516F106F70476F
:101BD00004B5002801D00020C04304F0CDFE002150
:101BE00004BDC046F0B5146E556E576F166FFFF703
:101BF000E5FF1466556657671667F0BD000000D014
:101C000094464A4A926F9208624601D228E0C04642
:101C1000F0B5464E346E756E776F366F00F020F873
:101C20009446424A14665566576716676246F0BD89
:101C300094463E4A926F9208624601D254E0C046F2
:101C4000F0B53A4E346E756E776F366F00F04CF823
:101C50009446364A14665566576716676246F0BD65
:101C6000002B24DB11D000293EDA00B5C9434042E5
:101C700000D1013100F038F8C943404200D10131B0
:101C8000DB43524200D1013300BD002AEBD10028D2
:101C900001D1002905D00020C90FC90701D1C043D7
:101CA000410800B504F058FE0022002300BD00B535
:101CB00000290ADBDB43524200D1013300F014F863
:101CC000C943404200D1013100BDC943404200D167
:101CD0000131DB43524200D1013300F005F8DB4310
:101CE000524200D1013300BD002923D1002B18D16D
:101CF000002A0CD0BC460D4F38667A6600210023BE
:101D0000FFE7FFE7FFE77A6F386F67467047002805
:101D100001D00748010000B504F01EFE0022002398
:101D200000BD02000B00002000217047000000D021
:101D3000FFFFFFFF002B00D0BFE0130C28D1002ACB
:101D4000E7D080B4114F39667A66FFE7FFE730B419
:101D5000040C7B6F396F1B0423433B667A66FFE7F5
:101D6000FFE7FFE7C04684B27B6F3D6F1B04234350
:101D70003B667A66FFE7FFE7C04600232C042D0C84
:101D80007A6F386F00196941B0BC7047000000D00D
:101D9000F0B594460025140E01D112020835140F37
:101DA00001D112010435940F01D192000235D40FF4
:101DB00001D152000135D40B0134254F7C66254CEE
:101DC0003C660E0C93B2FFE7FFE7FFE73C6F66430C
:101DD000360C7703BE467343DF0B5B04C01AB94170
:101DE000130C7343DB18C91ACE086643360CB6448D
:101DF00093B273431F0F1B01C01AB941130C7343F5
:101E00001F0B1B05C01AB941860D8F023E43664366
:101E1000360C092D24DB520A7243801A7703460AD6
:101E20006643360C16235B1BDE40DF40BF19644659
:101E30006643821B7046043506330100D940A84032
:101E4000C01900D30131A24206D20023F0BD000028
:101E5000000000D0FFFFFFFF121B0130F3D3F1E7BA
:101E600009277F1BFE406446A2B27243801A00D24B
:101E70000139220C7243130C1204821A99410B008F
:101E80007046043513370100F940A840801900D38B
:101E90000131002B02D1A2420AD2F0BD013000D3A1
:101EA0000131121BFAD2013BF8D1A24200D2F0BD9F
:101EB000013000D30131121BF7E7F0B51C0C00D044
:101EC00080E00CB400251C0A04D11B02160E33431B
:101ED000120208351C0B04D11B01160F33431201EB
:101EE00004359C0B04D19B00960F334392000235BE
:101EF000DC0B02D192185B4101351C00971864413C
:101F00000134464F7C66464C3C660E0CFFE7FFE70B
:101F1000FFE7C0463C6F6643360C7703BE4697B278
:101F20007743C01B00D20139C01B00D201399FB2D8
:101F30007743C91BC91B170C77437E04FF0B801B1B
:101F4000B941CE086643360C0C2D33DBB644120B78
:101F50001F053A431B0B97B27743C01B00D20139D0
:101F60009FB27743C91B170C77433E043F0C801B7D
:101F7000B941860D8F023E43664329277F1BFE40F1
:101F80000C3D7746AF40BF1930BCA2B2ABB2724332
:101F90007343801A9941220C7243130C1204801A65
:101FA000994102000B000137001BA941F9D2781EAC
:101FB0000021F0BD0C277F1BFE4077467F0BAF4012
:101FC000FF19E0E700245D1C07D0144F7D663966D9
:101FD000FFE7FFE7FFE7FFE73C6F95B29EB265437F
:101FE0006643401BB141150C1E0C65436643360425
:101FF0002F0C3E432D04401BB141994204D20200F4
:102000000B0020000021F0BD01D19042F7D3801ACF
:10201000994101349942F2D3F6E70000000000D064
:10202000FFFFFFFF48404140484018B4134B5B6836
:10203000019308BD18B4114B1B68019308BD944669
:102040000F4A926F920805D2624618B40B4BDB68B8
:10205000019308BD0A4AF0B5146E556E576F166F9E
:102060006246FFF7F2FF064A146655665767166721
:10207000F0BD18B4014B9B68019308BDC01100204E
:10208000000000D0FFB550404240504059404B4006
:10209000594000E0FFB5154F4C00640D03D0BC4221
:1020A00004D10C0314D80020090D09055C00640D4F
:1020B00003D0BC4204D11C030AD800221B0D1B050F
:1020C00001264B4009D44B4003D58B4200D18242BC
:1020D000FFBD9942FCD19042FFBD0B43DB18034387
:1020E0001343F5D0C9434918FFBD0000FF070000A6
:1020F00000B5FFF7CFFF804100BDC04600B5FFF738
:10210000C1FF01D9002000BD012000BD00B5FFF7CF
:10211000B9FF804100BD012040054A00121804D8D3
:102120005A00121801D800207047012070470000A3
:102130000021002805D17047C1174840401AFAD045
:10214000C90713B5064B1B6898470CBC441CA2403A
:102150001005120B0349091B09051943114310BD52
:10216000101E00201F04000010B54C00620D8023DB
:10217000D218DB00D21A5B057E2A10DD9E3A13DAF4
:10218000CC170903490819435242D1406400013475
:102190001532202A05DAD0400843604310BD0020E4
:1021A00010BD0846604310BDC80FC018013810BDEF
:1021B00018B4024B5B6A019308BD0000C0110020F7
:1021C00010B50148FEF72CF9FC6A0010132370B516
:1021D0001D78012D19D014DD1D48FFF791FB060075
:1021E0001C48FFF78DFB1C4C80223100200000F0C2
:1021F000AFF8022D06D01948FFF77AFB184B18608C
:1022000070BD154C174BA364F5E7174B124C2360B8
:102210006360A360E36023616361A361E3612362A0
:102220006362A362E36223636363A363E363236480
:102230006364A364E36423656365A365E365236660
:102240006366A366E36623676367A367E367D9E70B
:102250005344000053460000C01100204C330000DE
:10226000101E00206D220010C121001007B560462D
:1022700001880A0A0230DF2AFAD1C9B2820804D3DF
:10228000028840880004104300E00068014A505072
:10229000039007BDC011002051434343C9188C4629
:1022A000110C83B24B4310B4040C614392B280B260
:1022B000504362431C041B0C001910BC5941130409
:1022C000120CC018514161447047000010B501481C
:1022D000FEF7A6F87C6A0010132310B510481C788E
:1022E000FFF70EFB0100012C0AD003DD80220D4810
:1022F00000F02EF80C48FFF7FBFA0C4B186010BDED
:10230000084C5422200000F023F8220008498032B3
:102310002368002B00D1216004349442F8D1E9E70E
:1023200053460000141E00204C330000101E0020F5
:10233000CD22001001480421014B1847D00F002086
:1023400011190010014B1B6818470000D00F002026
:10235000014B5B6818470000D00F00207047C04653
:10236000F8B55746DE464E464546E0B599460A9BC7
:1023700007009A460D9B884693460B9C9B073BD1D2
:102380000C9B9C423DD21E1B0B9415000C005E441E
:102390002A004B46013521002020B847B542F7D12D
:1023A000A0460B9C002C20D0454636195346321BC4
:1023B000013C185D29004B46B847002CF6D12B0094
:1023C000350098460D9B9B070FD55B46EC1A0C9B7E
:1023D000A3420AD9464698462A004B46310020209F
:1023E0000134B84701354445F6D32800F0BCBB465C
:1023F000B246A946A046F8BD16001500002CD3D160
:10240000E0E71600002CCFD11500EEE7F0B54F46FF
:102410004646D646C0B584B098460EAB1B78944667
:102420009946129B0D9C109F119E9A0725D4002E51
:1024300065D1BC4221D201221A409246202C00D103
:10244000E9E00C9A551E302202E0202C00D17BE0FE
:1024500001342A55A742F8D85246002A0DD0B4427A
:102460000BD20C9A551E3022202C02D171E0202C68
:102470002DD001342A55B442F9D1DA063CD55A059B
:102480002ED4002C28D10F9A102A00D1B6E0022AAF
:1024900000D1BCE030220C9C227001244A46002A64
:1024A00065D15A0700D499E02B220C9D2A5501349E
:1024B00003930C9B62460093029643460194FFF7F8
:1024C0004FFF04B0E0BCBA46B146A846F0BD202498
:1024D000DA06EDD55A0503D4A74266D0B44264D0DB
:1024E0000F9A102A71D0022A57D0202CE0D0220057
:1024F000013430250C9FBD54202CD9D0CEE70122C9
:1025000015001D40AA461A4236D04A46002A4AD132
:102510000C321A4247D1BC42A1D2202C91D1202E9C
:1025200017D82024DA06C3D55A051BD4202F01D092
:10253000202ED5D11F220F9D102D6FD0022DD8D166
:1025400062250C9FBD54D0E75246002A79D0202E38
:10255000BDD92024DA06ABD55A0503D4202FE9D003
:10256000202EE7D00F9A102AA2D12024A0E72D22F6
:102570000C9D2A5501349BE7BC4200D37DE7202CFB
:1025800000D05EE7DA06F0D55A05EED4202F62D0EF
:10259000202EEAD134001F22CDE7202C00D187E77E
:1025A00022000134CCE7013EB5E7621E012CC2D106
:1025B0000F9A102A00D06AE79A063BD558220C9C45
:1025C0002270283A6270022468E79A060ED4202C02
:1025D000CBD078220C9D2A55013486E71A0700D407
:1025E00066E720220C9D2A55013461E7202CBCD0DF
:1025F00058250C9A12191570013476E79A0608D5F9
:1026000058220C9C227030226270022446E760320D
:10261000F7E77822F5E7002A83D1B3E7A21E013C51
:102620009D0603D478250C9FBD5460E758250C9F68
:10263000BD545CE778220C9C2270483A62700224F8
:102640002CE7DA0600D433E75A058BD4202F00D0CC
:1026500044E71F226FE73C001F226CE710B50028FB
:1026600000D110BD01F068FBFBE7C0460B0010B5C0
:10267000002802D049681B68984710BDF0B557463E
:102680004E464546DE46E0B599B0824689469046BC
:102690000893229A239B10001900FFF73CFD0028A5
:1026A00000D0CDE0229823990122D94B5242FFF766
:1026B0002DFD002800D0C3E0229823990122D54B9C
:1026C0005242FFF715FD002800D0B9E02298239967
:1026D00000220023FFF70CFD002800D0F1E1229E2C
:1026E000239F8023269ADB001A400D92269A1A42D5
:1026F00001D1062324938023269A1B011A403B0014
:1027000093460996334300D0B3E0002A00D0C2E1DB
:10271000002300240A930B94002304250993259B8E
:102720000024AB4200D95C1B0223269A1A400C926B
:10273000269A134203D06B426B415B421C40099BBB
:10274000002B07D00A9A0B9B30003900FFF777FC6B
:1027500006000F002298239900220023FFF7C8FCEF
:10276000002803D0802109067B181F00269AAA4B57
:10277000009601971340089E0493249B03940293B0
:10278000424633004946504600F0AAF90400002DA5
:1027900067D02020269A4946024013005A425341EE
:1027A0005B42621C18400A92330022004530D04739
:1027B000099A6F1ED317D4185C40D30F9B4600258F
:1027C00001E0202D13D008AA94461F232000634463
:1027D0000A2101355E19FFF7EDF930313170200023
:1027E0000A21FFF7E7F926000400092EE9D805239E
:1027F0000693002304930A3303935B46089E0293D7
:1028000010AB0A9A0093494633005046059701954C
:10281000FFF7FCFD0C9A0400002A22D04246851ADC
:10282000259AAA421DD9B0465746160022004346B3
:10283000494620200135B8470134AE42F6D810E0B1
:10284000269B42460493259B49460393249B50466E
:102850000293229B239C00930194089B00F040F973
:102860000400200019B0F0BCBB46B246A946A04601
:10287000F0BD6A4B78009C46400D6044FFF75CFC5D
:10288000674A684BFFF7F5FB674A684BFFF7D2FBD7
:10289000674A3B031B0B1A4304000D000998110003
:1028A000644B0022FFF7C1FB634A644BFFF7E1FB77
:1028B00002000B0020002900FFF7BCFBFFF754FCCF
:1028C0000990FFF739FC5E4A5E4B04000D00FFF7EC
:1028D000D0FB00225C4BFFF7ADFBFFF745FC5B4AEA
:1028E0005B4B29000C902000FFF7C3FB04000C9801
:1028F0000D00FFF721FC574A574BFFF7BAFB0200C8
:102900000B0020002900FFF790FB04000D000200DF
:102910000B000A940B95FFF7ACFB04000D000A981E
:102920000B9902000B00FFF785FB00220E900F9120
:102930004A4B20002900FFF782FB0022484BFFF79B
:1029400079FB02000B0020002900FFF778FB002232
:10295000444BFFF76FFB02000B0020002900FFF73C
:102960006EFB0A9A0B9B0D0080210400C905002014
:10297000FFF75BFB02000B0020002900FFF75AFB6A
:1029800002000B000E980F99FFF759FB0022284B0D
:10299000FFF750FB344B0C9C9C46644423050022FB
:1029A000FFF767FB04000D0002000B003000390048
:1029B0000A940B95FFF79CFB00285DD123002A00A9
:1029C000C625099963318D42AD4159466D420435A2
:1029D000002900D1A3E6134363D030003900234A15
:1029E000234BFFF78BFB002807D000223000390073
:1029F000204BFFF77DFB002853D1249B002B00D1F7
:102A00008DE60D9B5A1E9341249AD31A249386E691
:102A1000FFFFEF7FFFFFEFFFFFF7FFFF01FCFFFF6F
:102A2000FB799F501344D33FB3C8608B288AC63FBD
:102A30000000F03F0000F83F61436F63A787D23F7B
:102A400071A379094F930A400000E03F1655B5BBCA
:102A5000B16B0240EF39FAFE422EE63F00002C40F7
:102A60000000244000001840FF0300002D431CEB31
:102A7000E2361A3F80842E41099B0022013B0993D4
:102A80002000164B2900FFF7DAFA0A0001000300C4
:102A90000A910B9294E7002300240A930B940023DD
:102AA0000993249A099B9A4214DDD31A013B24937B
:102AB0008023269ADB001A430023002526920993DF
:102AC0002DE6802212069446229B1E00239B63441F
:102AD0001F0006E600232493EAE7C04600002440D6
:102AE000F0B54546DE464E465746E0B595B08B46B6
:102AF000904699461E9A1F9B0A9019001000209D2F
:102B0000FFF709FB002800D0B0E11E981F990122B1
:102B1000C74B5242FFF7ECFA002800D037E11E986D
:102B20001F990122C34B5242FFF7F0FA002800D050
:102B3000A7E01E981F990022BF4BFFF7E7FA002875
:102B400000D088E01E981F990022BC4BFFF7D0FAF6
:102B5000002800D07FE01E981F9900220023FFF775
:102B6000C7FA002800D0FAE000230B938023229CB0
:102B7000229ADB001C401A4200D102E1092D00D844
:102B80007CE106A98C462C00172200233021093C49
:102B900062440133D154EF1A202B00D132E1A34219
:102BA000F7D10022A44B069207931E981F99FFF7B6
:102BB000DBFA0500FFF7C0FA02000B001E981F9910
:102BC000FFF733FA069A079BFFF753FA089009912B
:102BD000FFF7EEFA0600FFF7ABFA02000B000898C9
:102BE0000999FFF722FA0022954B08900991FFF707
:102BF0008DFA002800D1D2E001363000FFF798FAB4
:102C0000069A079BFFF77AFA002801D000260135C3
:102C1000AA46002F00D098E02800FFF78DFA0200A6
:102C20000B001E981F99FFF700FA854B0022060043
:102C30000F00FFF75DFA0CAB9A46002845D1002241
:102C4000300039007E4BFFF761FA00283DD1EB07D9
:102C50003BD5013539E0229B42460493219B5946DE
:102C600003930A981E9B1F9C0295009301944B4668
:102C7000FFF704FD15B0F0BCBB46B246A946A0461E
:102C8000F0BD229B5B0767D403226E4B2299019211
:102C9000039121990291009342464B4659460A9866
:102CA000FFF75EFBE6E706AA944617232800634475
:102CB0000A2101341E19FEF755FF3031280031700A
:102CC0000A21FEF74FFF051E76D0202CEBD10323FF
:102CD000229A1340012B1DD1219B002B1AD00B9B54
:102CE000002B00D0BBE0229A0C33134200D0B6E098
:102CF000219BA34200D887E006AB9C4617223023D5
:102D0000624404E02199013413558C4259D0202C9F
:102D1000F8D12024229B01940393219B02935346D4
:102D2000B9E706AA944617230A2163443000013408
:102D30001D19FEF73FFF3031297030000A21013F95
:102D4000FEF738FF092E46D90600202CE9D155465A
:102D50000CAB20249A46B8E704223B4B96E71E9A18
:102D60001F9B00200021FFF760F901230B938023B4
:102D7000229C229ADB001E901F911C401A4200D018
:102D8000FCE60022314B0627069207930DE7229BB3
:102D90000393219B0293042301932D4B7BE7002295
:102DA00008980999264BFFF7A3F9002800D02FE7D0
:102DB000002E4FD101362BE70323229A1340012B1B
:102DC00066D0202CA6D00B9B002B1FD02D23524663
:102DD000135501349EE75546202CB9D030233A19BB
:102DE000002F08D0172006A9013409180B55202CF4
:102DF000AED09442F6D10CAB9A462E2352461355D0
:102E0000013462E72024CCE6202C83D0229B5B0790
:102E100008D4229B1B0700D47CE72023524613557D
:102E2000013477E72B2352461355013472E7C0462D
:102E3000FFFFEFFFFFFFEF7F65CDCD4165CDCDC13A
:102E40000000E03F606B0010586B001080842E4142
:102E5000686B0010F30700D4DAE60136D8E6219B50
:102E6000013B2193A34200D946E7AAE7229B0393A3
:102E7000219B029303230193074B0CE7074BEA00C6
:102E80009B185C681B682F000693079400248CE64F
:102E9000219B002B95D022E7646B0010286E001058
:102EA000F0B55746DE464E464546E0B5A5B01F0094
:102EB0002E9B91460D93CA4ACA4B82468B461A6096
:102EC000002900D129E2002338789846002800D153
:102ED0002BE2C54B44460C93C44B55464E460E93CD
:102EE0000AE0631C9846220033005946A84744462E
:102EF0003878002800D187E001372528F1D1082350
:102F00009A46043B9946023B9846013B00229C4668
:102F10000B943878791C0300203BDBB2102B03D8CC
:102F20000C9C9B00E3589F460300303B0B9C0B928C
:102F3000092B3AD9002398462A2800D1DDE0002346
:102F40009A462E284BD00300683BDBB2122B1ED8CA
:102F50000E9A9B00D3589F4663460F001A43D8E74A
:102F600043460F001A43D4E74B460F001A43D0E7FD
:102F700010230F001A43CCE753460F001A43C8E74B
:102F800080235B000B9A78781A430B9201310F0073
:102F900067284FD82428A4D90300253BDBB2422B55
:102FA0009FD893499B00CB589F46002398460B9B84
:102FB00047469C4600E00131BB00DB195B001F184F
:102FC0000878303F0300303B092BF4D963460B935C
:102FD0000023B8469A460F0001312E28B3D1802035
:102FE0000B9AC00002430B923022524294467878EA
:102FF0000B0084446246092A00D8AAE12A2800D19D
:10300000B9E10F0001319EE7A046AA46B146C84586
:1030100003D301235B424B4498464B4642465946F4
:103020000020D047200025B0F0BCBB46B246A946E0
:10303000A046F0BD01006939C9B20F2900D950E797
:1030400001238B409C466B4B994663464A4613408E
:103050000F9362464B461A4200D068E10A2956D0C7
:10306000072900D03DE70D9B02CB9846002900D0F0
:1030700092E10B9B10211A008A4310001131084382
:10308000814680201A00C0000240110003421CD17A
:1030900014AB9C461F220F2362440D959C461500DD
:1030A0000F9B0B9402E0202B0CD0110064460C40C7
:1030B00020003730092C00D807380133E8540A09BA
:1030C0000F29F0D80B9C0D9D0F934B4608220693B9
:1030D0005346059208320392002204930F9B0292FA
:1030E00001931CAB22000093594633002800FFF7E0
:1030F0008DF9434604000D93FAE60D9B04CB9046F0
:10310000002A79DB78780D930F00013117E70D9BCA
:1031100002CB14930B789C4618005346002B00D129
:1031200034E1002815D05346013B013399460D94F4
:103130000B9C89444A460B00A14601E0934203D010
:103140005C780133002CF9D14A465B1A0D9C0B9236
:103150000F938023DB0099460B9A13400D934B4647
:103160001A4204D00F9B534501D953460F930223B3
:1031700099460B9A13400B934B46134200D1F5E14D
:103180006346002B00D1D6E10D9B002B00D182E1DC
:103190000B1BD14631009A463B00A1442E005F46EE
:1031A0004D4622009B46894609E04B463900541C97
:1031B000B0475346185D002800D192E122009542A5
:1031C000F3D14B465A46A946BB46350017001E00B0
:1031D0004C460B9B002B00D0ADE1149B0D9387E672
:1031E000A12E0010CC1D00208C6C0010D06C0010A3
:1031F0001C6D0010419000000B9A283802430B927E
:1032000042465242787890460F000D93013196E67F
:1032100078786C2800D15DE180230B9A5B001A431B
:103220000B920131B3E680239B00ABE678786828E7
:1032300000D148E180230B9A01311A430B92A6E694
:10324000672800D1B2E0472800D11AE1452800D113
:103250001CE10B9A0721049242460D9B039207330F
:1032600052468B43190002920CC928000092019328
:103270000D91220033005946FFF700FA040037E6AB
:10328000462800D18DE00B9A0721049242460D9BFF
:103290000392073352468B43190002920CC928004F
:1032A000009201930D91220033005946FFF718FC5C
:1032B00004001DE6631C9846220033005946252071
:1032C000A847444614E60D9B04330F93631C9946AC
:1032D0000B9B9A0700D40AE10D9B220018785946EF
:1032E0003300A84743464444012B00D86FE1B04661
:1032F0002E0025004C46B9465F4622004346013465
:1033000039002020B047AC42F7D12C00BB46350035
:103310004F4646460F9B0D93EAE5D64B38789A46C2
:1033200000239846002800D0D3E500246FE66F28DC
:1033300042D000D8FDE11023782800D19BE00B9A01
:103340009A430B920A239C46002314930A330F934B
:1033500038E057460B9AB900C919490001330F18D4
:103360001878303F010030390929F4D9BA460B9258
:103370001F00591CE7E50D9BB87804CB0237D143F9
:10338000C9170A4092460D93791CDCE5002800D14C
:10339000DFE602235B42C8E621200B9A02439146F6
:1033A00076E620230B9A1A430B926CE780230B9A44
:1033B0001B011A430B924CE708239C4600231493ED
:1033C00008330F930B9880230200DB001A40110092
:1033D0000200184200D080E00C239A4310008023A2
:1033E00002009B001A400B92184200D0F1E08023AB
:1033F00002005B001A4091460D9A04321492184262
:1034000000D0C3E2430600D5D7E0030600D421E391
:103410000D9B1B880993002B00D02DE1103398439E
:10342000002900D128E100239946434605935346DD
:1034300004930F9B06900393002302934B46019342
:103440001CAB22000093594633002800FEF7DEFF34
:103450000400C2E6582809D0622800D0E3E2022323
:103460009C460023149302330F93ABE720230B9A5F
:103470001A430B92103B9C460023149310330F9376
:10348000A0E780230B9A1B011A430B9220230B9A6F
:103490001A430B92DDE60B1B9A460F9B99463B00A5
:1034A00037005E469B4622003B003100A84753464A
:1034B0000134185D0028F6D14B460F935B46B346A6
:1034C0003E001F0085E6C0230B9AB8781A430B9282
:1034D000F91C5CE5C0239B00F6E70D239A4310001E
:1034E0007DE75B463500BB464E461F0071E643460E
:1034F000012B66D9631E434432002E001D003B00A1
:10350000A2465F4691469B4622004B460134390055
:103510002020B047AC42F7D15B463500BB464E4653
:10352000A14654461F000D9B4A4618785946330061
:103530004444A847EEE60F9BA146984500D84CE6C8
:103540004444E41AB0462E0025004C46B9465F4676
:1035500022004346013439002020B047AC42F7D165
:103560002C00BB4635004F46464636E60F98804550
:1035700000D873E24346E218131A32002E001D00F1
:103580003B0091465F469B460F9122004B4601341B
:1035900039002020B047AC42F7D15B46BB461F0044
:1035A00043460F9901330F930B7835009C464E46E6
:1035B0006046002800D0E7E50FE60D9B1B780993D5
:1035C00029E70D9B2200187859463300A8474C463E
:1035D000A0E60D9AFA3BFF3B07329A430133994626
:1035E00091444B460D931368526815921A4306D1C5
:1035F0001032904300220992002900D083E061221A
:10360000810600D54122D2B20A9214AA91460A9AA2
:1036100000210A3A0B9242461792524618925A4695
:10362000B24609911E001F31149B4944BB461694B3
:103630001A950024674698468946159D19901B9255
:103640000AE03032D2B24B4601341A55A8454CD06C
:10365000202C4CD006000D003A0000233000290039
:10366000FEF7E6FAD2B2092AEBD90B9B9C466244DC
:10367000D2B2E8E75D2300106123820600D5412322
:10368000DBB20A3B0B93434614A91F228C461593C9
:1036900053466244B2460D9417974C468046A9465D
:1036A0001700099D0F9E169308E03033DBB20134FA
:1036B0003B55B5420ED3202C0CD00500310028001C
:1036C000FEF778FACBB20929EFD90B9A94466344F6
:1036D000DBB2ECE7159B40469846169B4D46564696
:1036E000A1469A460D9C179F9FE6B742B0D9179BFB
:1036F00056469846189B5F469A461B9B09949B46E4
:10370000169C19981A9D43460593534604930F9BA4
:103710000690039300230293099B01931CAB2200A4
:103720000093594633002800FEF770FE0400FFF7AF
:10373000DFFB10230B9A9A430F92692800D091E186
:103740000B9980230A00DB001A4010000A0019427E
:1037500003D0112118008A430F920F9A8023110081
:103760009B0019408C461A425BD1802311005B00FC
:10377000194089460D9904310B911A4200D0B2E0EC
:1037800013005B0600D4EDE00D9B1B781A00D90FE7
:103790000D91002B00D1A3E0100014AA94464246DC
:1037A0001F23159252466344A846BA464D461494C8
:1037B000B14604001F00169201E0202D0FD020001A
:1037C0000A21FEF7F7F901357E19303131702000FA
:1037D0000A21FEF7EFF926000400092EEDD8159B0B
:1037E0004E46A94645469846169B57469A46149C0F
:1037F0000F9B069343460593534604930A23039372
:103800000D9B02934B4601931CAB2200009359463B
:1038100033002800FEF7FAFD0B9B04000D93FFF721
:1038200067FB07220D9B07339343013294469C4468
:1038300062460D920CCBD90F0B911100194300D1A8
:103840009BE0D9171391129151401091139959404F
:10385000119110981199129A139B801A9941109006
:10386000119114AA94464246002315925246994655
:10387000169232001F336344A8464E46BA4614944B
:103880001F00109C119D914601E0202E10D02000B9
:1038900029000A220023FEF7CBF9013630322B0033
:1038A000BA550D0022000400002BEED1092AECD8F5
:1038B000159B10941195454698464B46169AB1466D
:1038C00057461E009246149C0F9B06934346059351
:1038D000534604930A2303930B9B02934B461CE726
:1038E000002885D159E70D9B1B68DA0F1100002BCA
:1038F00000D1A6E0DA179818504014AA91461F2369
:1039000042464B44A8460D94169704006546B146BE
:103910001F001491159201E0202D0FD020000A21E4
:10392000FEF748F901357E193031317020000A2147
:10393000FEF740F926000400092EEDD8159BAC4691
:1039400045469846149B4E4619000D9C169F0F9BAA
:103950000291069343460593534604930A23039327
:10396000634650E713001B066ED50D9B00229B5E3D
:10397000D9175A184A4092B209E7002399460028FD
:10398000A2D100220023109211936AE70D9B1B68BD
:103990009946002B03D110339843002938D1612375
:1039A000820600D54123DBB20A3B0D9343461693B2
:1039B000534614A91F228C4617932B0062444D4690
:1039C000B246159418978046170099460B9C0F9E97
:1039D00008E03033DBB201343B55B5420ED3202C26
:1039E0000CD0050031002800FEF7E4F8CBB209291D
:1039F000EFD90D9A94466344DBB2ECE7169B404640
:103A00009846179B56464D469A460B94189F159C10
:103A100043460593534604930F9B0690039300235C
:103A200002930B9B0BE50B9980230A00DB001A40E5
:103A300010000A00194200D08BE610239A430F921F
:103A40008BE6002883D158E70D9B1B68D9175A18BD
:103A50004A409CE60D9B1B680993DCE4030001339C
:103A60000F93A5E50B926DE400B585B0039101219C
:103A700002900093034813004A4202A9FFF710FA8C
:103A800005B000BD6D26001010B5094A030014688A
:103A900084B0002C08D0012200910648524203A9AC
:103AA000A047012004B010BD00F092F90020F9E712
:103AB000CC1D00205D26001000BEFDE710B5FFF70D
:103AC000FBFFC04670B5FDF775FF074D074EB542C9
:103AD00009D20024013E761BB60808CD9847230082
:103AE0000134B342F9D170BD246A00102C6A001071
:103AF000030010B5080011001B68984710BDC046B0
:103B0000F0B5C64600B5437D07000D001600002B3A
:103B100038D0002A2EDD00216A1E90466A5C037DA3
:103B20004C1C00200A2A0CD0A64216D043461B5D2E
:103B300021000D3B5A4253416A5CDBB24C1C0A2AFD
:103B4000F2D1002BF0D1884217DB022110483B68EC
:103B50009847A64207D02000E8E7864203DD311AE5
:103B60003B6828189847AD19013D2B780D3B5A4208
:103B700053413B7580BCB846F0BD091A3B68281814
:103B80009847E2E70368110028009847F2E7C0462B
:103B9000786E0010F0B5C6460B6806000C0000B544
:103BA000802B06D05A1C2260E418267180BCB846CF
:103BB000F0BD0F4B1D68002D16D00B1D98460D4F04
:103BC00002E02D69002D0FD02B68002BF9D03B6847
:103BD000002B01D0AB42F4D1280041462268FFF708
:103BE0008FFF2D69002DEFD101220023DBE7C046B6
:103BF000C0190020C8190020F0B5DE4657464E46D1
:103C00004546E0B585B017001C0006000D00FDF725
:103C1000F5FB0023314A12184B41802109068B42E3
:103C200002D301222E4B52422E4908008A4602F04E
:103C3000C3FE01906B1C03D1300002F045FE05006D
:103C4000002C26D0284B9846284B1C68002C15D0F9
:103C5000002F21D1264F02E02469002C0ED02368CA
:103C6000002BF9D03B68002B01D09C42F4D12000FE
:103C70002A003100C0472469002CF0D1019B002BA1
:103C800028D1280005B0F0BCBB46B246A946A046E4
:103C9000F0BD184B9846D7E7154B994602ABDF1D90
:103CA0000A239B4602E02469002CE7D02368002BFE
:103CB000F9D04B461B68002B01D0A342F3D12A0058
:103CC00031002000C0475B460122390020003B70D4
:103CD000C047E8E7504602F037FED2E740420F0007
:103CE000FFFFFF7F30100020013B0010C0190020B3
:103CF000C8190020F13A00100A4A1368002B05D1B8
:103D00000CE01A001B691032002B07D09842F8D142
:103D1000002902D103691360016170470029FCD0BA
:103D20001060FAE7C019002010B500F0B3F900F0F8
:103D3000FBFB012010BDC046F0B5CE46474680B51E
:103D400083B06B460600DD1D2870FDF757FB00238E
:103D50001A4A12184B41802109068B4202D30122D4
:103D6000174B524217490800884602F025FE164BB1
:103D700081461C68002C14D0144F02E02469002CEA
:103D80000FD02368002BF9D03B68002B01D09C4258
:103D9000F4D1200001222900FFF7B2FE2469002C93
:103DA000EFD14B46002B05D1300003B0C0BCB94663
:103DB000B046F0BD404602F0C7FDF5E740420F00B7
:103DC000FFFFFF7F30100020C0190020C81900201D
:103DD00070B5040002F078FD012301000500012206
:103DE0002000FFF709FF084B1C68002C06D0636811
:103DF000002B05D098472469002CF8D1280070BD0D
:103E00002469002CF3D1F9E7C0190020F0B5CE46A3
:103E1000474680B5A3B004000D00FDF7EFFA00237C
:103E2000294A12184B41802109068B4202D30122F4
:103E3000264B5242264F380002F0BEFD00230600FA
:103E4000019322002B00234801A9FFF70DFE019BDF
:103E50008046002B14D1204B1C68002C06D06368D0
:103E6000002B0BD098472469002CF8D1002E25D1C7
:103E7000404623B0C0BCB946B046F0BD2469ECE76B
:103E8000154B1D689946002D1CD0144C02E02D697D
:103E9000002D0FD02B68002BF9D02368002B01D008
:103EA000AB42F4D12800019A02A9FFF729FE2D693F
:103EB000002DEFD14B4601951C68CEE7380002F08B
:103EC00043FDD5E70195D1E740420F00FFFFFF7F9B
:103ED00030100020953B0010C0190020C8190020A8
:103EE0000FB400B583B004A901C90191FFF78EFF9B
:103EF00003B008BC04B01847F0B5002915DD0E4B1F
:103F00000D271A680D4B0E4CD3185D426B414518B6
:103F100020215B001E5F0478A64207D093691942F6
:103F2000FCD101301460A842F5D1F0BD936919426B
:103F3000FCD11760F2E7C046241F00200080FCBFC0
:103F4000201F0020204B70B504000D1E1E682ADDC6
:103F5000002010211D4B013C1A689369194214D1AD
:103F6000013093691942FCD1136823548542F4D17E
:103F7000002E08D050239363516B183B0B4014491B
:103F80008C466244136028000CE0002E08D05023B9
:103F90009363516B183B0B400D498C466244136090
:103FA00000280DD070BD002E0AD05022074B1B6890
:103FB0009A63596B183A0A4005498C4663441A6063
:103FC00003204042EEE7C04658190020241F00207D
:103FD00034100000064B10B51B68002B06D00021E2
:103FE000044A12689163044A1068984710BDC0469D
:103FF00058190020241F0020601900200822034BBC
:1040000019688B691A42FCD17047C046241F0020F2
:10401000F8B51A4F1A4B3A680500D3185842434175
:10402000184E14331C003368002D02D0002B0FD023
:10403000F8BD002BFCD0002120009563FCF7B6FAF8
:1040400020001149FCF70EFC104B35601D60EFE7B6
:104050000E4B200019600C493560FCF7DFFA012196
:104060002000FCF7A3FA50223B689A63596B183A78
:104070000A4007498C4663441A60D9E7241F002090
:104080000080FCBF58190020D53F001060190020A7
:10409000341000000D4B10B51B780D4B0D4C1B78E8
:1040A0000D4B02211B780D4B00202360FCF778F9A3
:1040B00002210120FCF774F9E12120684902FDF793
:1040C000EBF901210648FFF717FE10BD1C71001027
:1040D00018710010241F00201471001000400340CC
:1040E000E00F00207047C0460022014B1A70704755
:1040F0003E1F00204B790020FF2B0BD18B79002B2A
:1041000008D1CB79012B05D1082A03D9024B8A7833
:1041100009301A707047C0463E1F002001207047CA
:1041200010B5012901D0012010BD13495379107930
:1041300009781B02034300209942F5D15378012BE3
:1041400008D0022BF0D1002064220021FDF77AFB79
:104150000120E9E7D37891781B021943DB0507D5E5
:104160004A0A100001231A407E331940FDF7F2FB82
:1041700001204A0A4042F5E73E1F002000487047F0
:10418000606F001070B5050014000120012909D1ED
:1041900053780020012B05D1637912791B02134358
:1041A000072B00D070BD21002800024A9F3301F088
:1041B0005FFAF7E7B86E00100123037000487047FC
:1041C000986E00104B780A781B0213438A7810B55A
:1041D00012041A43CB781B0613439622D200934253
:1041E00000D010BD0022012011004042FDF7B2FBBB
:1041F000024B1860024B19607047C0465C190020E2
:104200006419002010B5024B1878FCF7EDF910BDC9
:104210003F1F0020154B70B51A68002A22D0EFF31B
:10422000108172B610680028FCD0BFF35F8F0020A9
:104230000F4A596010701B68BFF35F8F186081F3DD
:104240001088002400250B4E3078FCF7C1F90028B7
:1042500004D1002400252900200070BD3078FCF72F
:10426000C3F9F8E7FA240025A400ECE7F01D0020CC
:10427000401F00203F1F002070B5040000200E00EA
:1042800001F016FB002836D0002001F027FB0028A3
:1042900031D0FDF7B3F80023184A12184B418021A2
:1042A00009068B4216D2164D280002F085FB002825
:1042B00021D0002001F0FCFA00280FD101200021BC
:1042C000404200F009FD03246442280002F03CFB58
:1042D000200070BD01220B4B5242E4E7002001F0A8
:1042E000FDFA0028EAD021003200002001F000FB96
:1042F000041EEAD1E7E703246442E9E740420F00E5
:10430000181F0020FFFFFF7F10B5FDF777F800238F
:104310000E4A12184B41802109068B4202D301221A
:104320000B4B52420B4C200002F046FB00280CD0F5
:1043300001200021404200F0CFFC002001F022FBD0
:104340000028F5D1200002F0FFFA10BD40420F0016
:10435000FFFFFF7F181F0020F8B5DE46574680B5E7
:1043600005000C00FDF74AF80023374A12184B41AC
:10437000802109068B4202D30122344B5242344938
:1043800008008A4602F018FB002803D1C0BCBB46D7
:10439000B246F8BD002001F08BFA00284AD0002672
:1043A000002C43DD2B4B9B4614E0A919002001F0A3
:1043B00023FB070001200021404200F08DFC00207B
:1043C00001F0E0FAFDF71AF8224BF619186059606F
:1043D000B4422BDD002001F02FFBA71B0200B842E6
:1043E00000DD3A00002AE0D101200021404200F027
:1043F00073FC002001F0C6FA002001F059FA0028F1
:1044000014D0002001F018FB0028E1D1FCF7F6FFE2
:104410005B460F001A685B68002184460E4812183C
:104420004B419F4202D8D3D19445D1D9504602F096
:104430008BFAABE700200021064B1860596050460C
:1044400002F082FAA2E7C04640420F00FFFFFF7F62
:10445000181F0020B811002020A1070030B52B4CF8
:1044600085B00021200002F097FA00281CD1284BCB
:104470001A68002A16D0EFF3108172B6106800286F
:10448000FCD0BFF35F8F01242248596002781B687B
:10449000D2B20470BFF35F8F0020186081F31088E0
:1044A000002A17D005B030BD01200021404200F0A5
:1044B00013FC002001F012FA0500200002F044FA7B
:1044C000002DEFD0144B1B68002BEBD0134A106863
:1044D0009847E7E7FCF77AFD0400FCF78FFFFA2224
:1044E0000023920012184B41802109068B4202D30F
:1044F00001220B4B524201210291002101910949F5
:1045000020000091FCF766FDCCE7C046181F002094
:10451000F01D0020401F00205C19002064190020BD
:10452000FFFFFF7F15420010D02310B51B0684B09B
:104530001C68FCF74BFDFCF749FEA04202D00020AE
:1045400004B010BD2A4B002100201B7801F070FD43
:1045500028480368002B47D00120FCF7C7FAFF2347
:10456000254C264920701840FCF758F82078012186
:10457000FCF71CF80520FCF73FF8002826D108229C
:1045800000211F48FDF7DEFEFCF720FD0400FCF7CC
:1045900035FFFA220023920012184B4180210906B0
:1045A0008B4202D30122174B52420121029100217A
:1045B0000191154920000091FCF70CFD0028BEDB9D
:1045C00012480121FFF798FB0120B9E70120FBF712
:1045D000BBFF0B4B01001800FCF7EAFA0022052094
:1045E0000B49FCF745F8EBE7FCF7C6FAB4E7C04621
:1045F00020710010181F00203F1F00205D44001094
:10460000F01D0020FFFFFF7F15420010F80F002073
:104610000542001000487047FC6F001000487047CA
:10462000A86F001010B5040017480378002B20D0A5
:10463000002C06D1154B16484380063BFF3B0380F8
:1046400010BD052C19D8134BA400E05812490123C2
:10465000013804E001330A800231142B0FD0C25C10
:10466000002AF7D1C022DBB25B0092000848134356
:10467000E5E7112100F01AF8DAE70020E0E7CA23A5
:1046800003489B00DBE7C046281F00200904000008
:1046900098190020906F00109A19002010B5024858
:1046A00000F0D8F810BDC046081E002030B54B1EE3
:1046B000012900D1A7E0664A11780D092C00303499
:1046C0009F2900D9A2E00470012B00D1BEE00F2188
:1046D000147821400C003034092900D998E0447046
:1046E000022B00D1B2E054782509290030319F2CEB
:1046F00000D990E08170032B00D1A7E00F21214069
:104700000C003034092900D987E0C470042B00D193
:104710009CE094782509290030319F2C00D97FE056
:104720000171052B00D191E00F2121400C003034A4
:10473000092900D976E04471062B00D186E0D478AF
:104740002509290030319F2C00D96EE08171072B9B
:1047500000D17BE00F2121400C003034092966D8BC
:10476000C471082B00D171E014792509290030317A
:104770009F2C5FD80172092B68D00F2121400C00BB
:104780003034092958D844720A2B5FD0547925094E
:10479000290030319F2C52D881720B2B56D00F211B
:1047A00021400C00303409294BD8C4720C2B4DD059
:1047B00094792509290030319F2C00D907310173E4
:1047C0000D2B43D00F2121400C003034092901D991
:1047D00037310C0044730E2B38D0D1790C092200EC
:1047E00030329F2900D9073282730F2B2ED00F222F
:1047F0000A4011003731092A01D830321100C17343
:10480000102B23D010300023037030BD07345AE73B
:1048100037310C0063E707316CE737310C0074E780
:1048200007317DE737310C0085E707318EE73731F7
:104830000C0095E707319DE737310C00A3E70731FE
:10484000AAE737310C00C4720C2BB1D1C018DAE7DB
:10485000081E002010B588B004000D220021684613
:10486000FDF770FD0D22002104A8FDF76BFD4B2321
:104870006A466846137004A90D2202F05DF81521FE
:10488000082220006944FDF763FD08B010BDC04652
:10489000F8B500F043F90C23194DFF22AB67052052
:1048A0001849FBF7E5FE184C402200212000FDF7D7
:1048B00049FD4027002301262121144A66702783E1
:1048C000A260136063545F31618445396354104AB8
:1048D00010496360E2602787A1620B606362E26255
:1048E00002F042F880239B052E64EB6490230A4A71
:1048F0000120EA508022094B5202DA64F8BDC0461A
:104900000000115091040020CC19002084001050A8
:10491000000110508000105010D0010000201150F4
:1049200010B501210520FBF741FE10BD10B5002296
:104930000021024800F012F910BDC046EC19002019
:10494000044B1970002904D080219023024A890267
:10495000D15070473A1F0020002011500B785B06A1
:1049600002D14B78052B00D070478A78014B1A6032
:10497000FAE7C04600001150F0B5C646C87800B549
:104980008007830F1800012B60D08F780A794B794C
:104990007F213940FC091B024E001343334D32196D
:1049A0005201AA18977001276740577000275B05CE
:1049B0005B0DD7701383D076B846CA00012C32D075
:1049C0002B4FBC468F016244BC46AC446746BA607C
:1049D00047461760002932D0264AC90090466246F1
:1049E000414451603F223F339343022837D022494C
:1049F00037190A687F01D3180B602049EF19FA6054
:104A00008B422ED836197601AD19EB7E1C499B06D8
:104A10004A4013438022120613436A681360012040
:104A200080BCB846F0BD174FBC468F016244BC46FF
:104A3000AC446746BA6247461760002908D1002394
:104A400064012C196360104BE360E8E70020E7E79E
:104A50000B4AC9009046624641445162C2E75B007E
:104A6000C5E7FCF7A1FFFA68CCE7C046CC190020E7
:104A70008400105004001050D41D0020FF0F10506F
:104A800000001050800010500001105010B501F0CF
:104A90006BFF10BD10B57F200C0020404000E409E2
:104AA000110000191A00034B4001C01800F056F81D
:104AB000012010BDCC1900207F23180010B508403C
:104AC000CA090B4203D107497D3B9B1A8B66400004
:104AD00080188022044B40010021C018120101F00F
:104AE0007BFF10BD00201150CC1900207F22130045
:104AF00010B50B400A4200D110BDC9095B005B181C
:104B000004485B01C018002300220349C37001F070
:104B100063FFF1E7CC190020FFF7FFFF80220A4B6B
:104B2000520410B51A60094B09491A6010000B684D
:104B30009843FBD18022002152010648FDF702FC78
:104B40000922054B5A6710BD00E0004000F000400C
:104B500008C000400000105000001150002310B5A4
:104B6000C3820133828283760161040001F00CFF6D
:104B7000002804D080219023074A8902D1502000C8
:104B800001F0D2FE002802D00123237710BD2000BF
:104B900001F01AFFFAE7C046002011507047C046E6
:104BA0007047C04600207047002070477047C046DD
:104BB0007047C0467047C0467047C046024B5878A1
:104BC000431E9841C0B2704770140020024B187801
:104BD0004007C00F7047C04670140020F0B5D6469D
:104BE0004F464646C0B5314B07009A461B780E002B
:104BF000FF2B01D0012044E0002941D000215422A4
:104C00002B48FDF79FFB00222A4C2B4B20001A70EB
:104C1000FBF7B2FF294B1C60294C2000143CFBF72A
:104C2000B9FF200001F00CFE264B274D1C60274BDE
:104C3000002B2BD02800FFF7BFFA254B2A781860ED
:104C400024490024894622490023884610E043462F
:104C50001B6862019B18002B12D05B68002B0FD0E1
:104C600098472A780134E4B2511C2300A1420FDB9B
:104C7000A242ECD89B1A5B014B445B68002BEFD13E
:104C80000020E0BCBA46B146A846F0BD2A78D7E776
:104C90005346310038001F70FFF7FAFD0028EFD0AF
:104CA0003800FFF73DFE0120EBE7C0462C10002046
:104CB00070140020681400203B1F0020C414002042
:104CC00024100020C8140020391F0020B941001012
:104CD000C0120020B8700010F0B5DE4657464E46B0
:104CE0004546E0B5C84B91B002931B78FF2B00D12D
:104CF0003EE1C64BC64E9B465F46C64B0DAC01938C
:104D0000C54B009335686A69EFF3108172B613687A
:104D1000002BFCD0BFF35F8FA9612800210001F0B8
:104D2000BDFB6A69AB69BFF35F8F0021116083F33C
:104D30001088002800D11BE16378082BE2D89B0083
:104D4000FB589F466368002BDCD0A0689847D9E7E2
:104D50007F222179AF4D0A405300EB189846C809CD
:104D6000804440460123303005799D430571057923
:104D700003339D430571002A00D100E14346A74A51
:104D80001B7D1278934200D3EFE0A54A5B011568C2
:104D9000ED18002D00D1EBE0A36862792078AD69B1
:104DA000A847AFE79F4A1378002B00D1E0E01378C3
:104DB000013BDBB213701378002BA3D10122954D78
:104DC00001212B78042013432B703423EA5C8A439F
:104DD000EA54EA5C8243EA540133EA5C8A43EA54C7
:104DE000EA5C8243EA54237800209B4600F0A0FC52
:104DF000602223791A40602A00D1EFE0402A00D1D6
:104E0000F5E0DB06DB0E012B00D113E1022B00D114
:104E1000C7E0002B00D0E1E0202A00D11CE2002AEC
:104E200000D0DBE06379092B00D9D7E07E4A9B00F4
:104E3000D3589F46774D2B78DB0700D462E7FFF706
:104E4000BBFE5FE7019BDB78DB0700D45AE76068B5
:104E5000FFF7A6FE56E76F4D2B78DB0700D451E72E
:104E600028780007C00FFFF7A5FE4BE723786A49B3
:104E700099468B46694B6A4998468A4639001A78A2
:104E800047460023B04600254E46894610E053466B
:104E90001B686A019B18002B00D176E0DB683000AC
:104EA00098473A780135EDB2511C2B008D4244DC15
:104EB0009542ECD39B1A5B015B44EFE7237858499A
:104EC0009946564B8A4698463100BB464E461A785C
:104ED00000250023474689460FE053461B686A01B8
:104EE0009B18002B55D0DB68300098473A78013585
:104EF000EDB2511C2B008D4207DC9542EDD39B1A7D
:104F0000009A5B0194466344EDE7019D5422002121
:104F10002800FDF717FA1022FF214448FDF712FA86
:104F200028002022FF2114304E465F46FDF70AFA82
:104F300000F0F4FBFFF73CFEE4E6364D542200217E
:104F40002800FDF7FFF91022FF21281DFDF7FAF9CF
:104F500028002022FF21143046464F46FDF7F2F983
:104F600000F0DCFB2379AB70CCE6501C984213DADE
:104F700011B0F0BCBB46B246A946A046F0BDA3683E
:104F80006279207800F0E8FBBCE646464F46214DAA
:104F9000E6E74E465F46CBE71F4D9B1A5B015D1966
:104FA000FAE67023217A0B4218D1C80982460F33E2
:104FB0000B405B0098461948EB1853441B7D007862
:104FC0009946834266D216485B010068814699443F
:104FD000002A00D15FE14B46002B68D120780021E8
:104FE000FFF76AFD80212078FFF766FD8AE610480A
:104FF00000F09EFB012158460EAAFFF7C3F80028D7
:1050000000D07FE6EAE7C0462C10002010700010A8
:10501000C814002070140020B8700010391F002040
:10502000C01200203B1F00203470001074140020B8
:1050300085410010237A0F2BD0D8CF4AEB181B796B
:105040001578AB423ED3691C9942C7DB5D1BCB4B45
:105050006D01ED18686900F06BFB012158466B6922
:105060000EAA9847002800D04CE66022150023794C
:105070001D401A42B2D163790A3B012BAED800F031
:1050800057FB63790A2B00D199E158460EA900F02D
:10509000D9FA37E6431C4B4500DAF7E04B461B1ABA
:1050A0005B019946B5488144002A00D1F3E04B46A4
:1050B000586900F03DFB4B46012158465B690EAA3A
:1050C00098479CE7AE4A5B011568ED18002DC1D1E9
:1050D00084E7A37999466B789945D6D06B78002BF5
:1050E00000D033E14B466B70002B00D12BE14846DA
:1050F0000138C0B2FFF792FA002800D17EE1437870
:105100000793022B00D079E10122C179B1468B11BE
:10511000491113400A40302112015B0113432A78E0
:10512000A8468A4313432B7009239A468244564665
:10513000BA46C37882781B021343C31805938E4B7B
:1051400004938E4B08938E4B09938E4B0A93059BC9
:10515000B34200D855E1737801220B2B03D1337889
:10516000F278F6187378042B00D044E1059B0027F1
:105170009B1B9BB20693049B0B921D780023039309
:105180001BE0099A7B011568ED18002D00D132E172
:10519000310058462B69069A98478446082803D957
:1051A000069A824200D313E1049B01371D78FFB2B7
:1051B0006B1C03979F4200DD1DE1BD42E1D8039BBC
:1051C0005D1B089B6D019C466544E1E76B780CAA6A
:1051D00002321370584601230EA900F049FA91E5F6
:1051E000E3881A0AD8B20F2A00D9F7E66649930075
:1051F000CB589F460EA800F0A1FA5846A179FFF7B8
:1052000095FB02222B7813432B707BE5E388012B5F
:1052100000D0E3E608222B78584693430EA92B7062
:1052200000F010FA6EE5022029780CAB9A1C8B0670
:105230008908DB0F01400B431380584602230EA957
:1052400000F016FA5EE5E388012B00D0C6E60822DE
:105250002B7813432B7018E7237A0F2B00D9BDE668
:10526000EB181D79444B1B789D4228D2444B6D01AD
:105270001B685D19002D00D1B0E6686900F058FA8E
:10528000012158466B690EAA9847B8E6002A00D05B
:10529000A4E6002399466279022013000392834317
:1052A000012B15D0002A00D098E62B00434453442C
:1052B00030331B790CAA9B07DB0F0232BCE75A1C68
:1052C000AA4200DA8AE6ED1A2C4B6D01ED18D4E7FC
:1052D000E388002B12D1029B1878039B012B23D06B
:1052E000FFF7EAFB43460221EB18534430331A79A7
:1052F0000A4301211A711A790A431A714B46002B8D
:1053000000D1FFE4586900F013FA4B4601215B69B4
:105310000EAA58469847002000F00AFA3523EB5CA5
:10532000DB0700D5EEE4B0E6FFF7E0FB43460221E1
:10533000EB18534430331A798A431A711A79039956
:105340008A431A71DAE7FFF733FC9EE600215846DC
:10535000FFF7F6FA5846FFF799FBAB780749039336
:105360000491054B064998461A78059100232900B7
:105370001D008A461BE0C046391F0020B87000108F
:10538000C0120020841400205C700010059B6A018C
:105390001B689B18002B4DD0DB6858469847434646
:1053A0001A780135EDB2511C2B008D422EDC95424E
:1053B000ECD39B1A049A5B0194466344ECE70CAB74
:1053C0009A1C584601230EA9157000F051F999E472
:1053D0000B9A012A4FD0002A3CD00023B07804E079
:1053E0000133DBB20F71934234D2C118C9B24144C8
:1053F0000D79FF2DF4D04E464546574600236B707D
:10540000ECE54E465746FFF7D1FB3EE655465422A3
:1054100000212800FCF796FF1022FF21281DFCF731
:1054200091FF28002022FF211430FCF78BFF039B03
:10543000AB7057E65546FAE7FEF7A0FE021E00D114
:10544000CCE5D37891781B020B4358460EA900F0A7
:105450000FF9D4E565463B002A0031000A9800F0B8
:105460008DFEAC46049B039A1B786644013393423D
:1054700000DB6CE6BFE7174B29699942ADD1079A6B
:10548000ABE7FFF78FFB021E00D1A7E55846137864
:105490000EA900F0EDF8B2E52189FFF7C3F8021E6E
:1054A000F4D19BE5022A0FD0FFF77EFB021EC8D184
:1054B00094E5FFF7AFF8021E00D18FE5122358469E
:1054C0000EA900F0D5F89AE5FFF7A8F8021EB8D1AA
:1054D00084E5C0463D5B0010F8B557464E46DE46B3
:1054E00045460C00E0B516001F00002A3CD01F4BBB
:1054F00000259A46702399461D4B9B4617E05B4654
:105500002000997800F0FCFD00281FD021004046C3
:10551000FFF732FA002819D0A378DA09012A1CD043
:105520000A9A013513702378E418B5421CDA6378BF
:10553000052B0BD1E3789B079B0FBB4206D153464B
:105540004A461B789846A3781A42D8D00020F0BC6F
:10555000BB46B246A946A046F8BD0B9A013513706A
:105560002378E418B542E2DB0120F0E72C1000209C
:1055700070140020702270B5094B0C001D788B78D8
:105580001A4201D0002070BD064B2000997800F02F
:10559000B7FD0028F6D021002800FFF7EDF9F2E76B
:1055A0002C100020701400200B007F2010B5184034
:1055B000DB0934334000044AC018044B1168C0189A
:1055C00000F05AFD10BDC046C41400207014002025
:1055D0000B007F2010B51840DB0934334000044A2B
:1055E000C018044B1168C01800F06EFD10BDC04615
:1055F000C41400207014002070B57F240F480C40A4
:1056000064000419CD09641930342079C00701D52C
:10561000002070BD012625790948354300782571A1
:10562000FFF738FA0028F4D101222379934323713C
:105630002379033293432371EAE7C04670140020B4
:105640002C10002070B5094C0600082220000D0027
:10565000FCF77EFE00238021E360A3602B783000FE
:10566000994300220023FFF7C7FF70BD50140020AC
:10567000F8B5CE4647469046264E80B5814608226C
:1056800030000D001F00FCF763FE4346B3600023AB
:10569000F381EC79AB7924021C43231CBC4200D972
:1056A0003B1C9FB2B381002C0ED0002F18D0434674
:1056B000002B2CD03B1C402F1BD89FB233787F2B64
:1056C0001CD80021144A0FE080212B780022994336
:1056D00048460023FFF790FFC0BCB946B046F8BD6E
:1056E0007F230022317899433B004846FFF784FF2F
:1056F000F2E740239FB233787F2BE2D9064C3A0081
:1057000041462000FCF724FE80212200ECE7002027
:10571000E2E7C046501400201014002010B51422F7
:1057200000210248FCF70EFE10BDC04650140020B8
:10573000014B18617047C0465014002010B5054C4D
:10574000010008222000FCF703FE0023A360E360B1
:1057500010BDC0465014002070B5384C1D00237891
:105760000600DA09C9098A4210D00020002D00D0B5
:1057700070BD21003000FFF7F1F82369002B03D042
:1057800022000321300098470120F1E7A0687F2B19
:1057900005D8002834D02A002949FCF7D9FDE28930
:1057A000A1685219E38892B24919E281A16093423B
:1057B00014D03F2D12D9A389981A051C80B2402815
:1057C0002AD82078ADB27F2828D800219A4232D03A
:1057D0001B4A2B003000FFF70FFFC9E72369002B9E
:1057E00005D0220002213000984700280AD08021ED
:1057F00023780022994330000023FFF7FDFEB7E72E
:105800000020B5E700213000FFF756F93000802175
:10581000FFF752F90120ABE74025D2E79A4207D0C3
:10582000074C2A002000FCF793FD80212200D0E7DE
:1058300080210022CDE70022CBE7C0465014002093
:105840001014002070B50500FFF7B8F9002800D14A
:1058500070BDFFF7BBF90028FAD1C8236B43124C87
:10586000E618F1780029F3D010331C19200000F05D
:10587000FFFD3F28ECD90020F178FFF795FE0028C6
:10588000E6D0200000F0F4FD3F2808D9074BEA01DC
:10589000D218F17840230020FFF7AEFED8E7F17868
:1058A0000020FFF795FED3E748130020C412002024
:1058B00010B50400FFF782F9002801D1002010BDC7
:1058C000FFF784F90028F9D1C8226243024B013066
:1058D0009B181B791840F2E748130020C82310B525
:1058E00043430248181800F0A5FD10BD58130020CE
:1058F000F0B5C824C646802344431F4F103405002A
:1059000000B53C195B029A4200D31C4A200092B2B7
:1059100000F012FE8046FFF751F9002803D14046FF
:1059200080BCB846F0BDFFF751F90028F7D1C82672
:105930006E43BE19F378002BF1D0200000F098FDE3
:105940003F28ECD90020F178FFF72EFE0028E6D0A2
:10595000200000F08DFD3F2808D9094BEA01D2183C
:10596000F17840230020FFF747FED8E7F1780020C8
:10597000FFF72EFED3E7C04648130020FFFF0000CC
:10598000C4120020F8B50600FFF718F9002801D16D
:105990000020F8BDFFF71AF90028F9D1C824744394
:1059A0002500134F2435ED19280000F043FD002891
:1059B000EED03F190020B978FFF7F6FD0028E7D0B8
:1059C0000C4BF401E41821002800402200F0B4FD43
:1059D000B978051E08D0030022000020FFF70CFE56
:1059E0000028D5D02800D4E70020FFF7F1FDCFE74D
:1059F000481300200413002070B5C82444430C4B06
:105A00000500E41880235B029A4200D3094A200073
:105A100092B200F059FE0600200000F00BFD3F2876
:105A200001D8300070BD2800FFF7ACFFF9E7C04691
:105A30006C130020FFFF0000C82310B54343024849
:105A4000181800F015FD10BD6C130020F0B50025EE
:105A5000184C83B0C82200212000FCF773FC164BC1
:105A600021001D70FF236371E1235B02A36020000E
:105A700008234022A37338310095073B103000F013
:105A8000A3FC2700012321002000260040227831BA
:105A90000093B837243000F097FCC0363800FBF78D
:105AA0006BF83000FBF768F8E561276226636563F1
:105AB00003B0F0BD48130020441300200B4B196BBA
:105AC00000290AD01A6A002A0DD000221A621A632D
:105AD000DA6100225A63012070471A6A002AFAD05C
